{
  "_format": "hh-sol-artifact-1",
  "contractName": "MusicToken",
  "sourceName": "contracts/MusicToken.sol",
  "abi": [
    {
      "inputs": [],
      "stateMutability": "nonpayable",
      "type": "constructor"
    },
    {
      "inputs": [
        {
          "internalType": "address",
          "name": "sender",
          "type": "address"
        },
        {
          "internalType": "uint256",
          "name": "balance",
          "type": "uint256"
        },
        {
          "internalType": "uint256",
          "name": "needed",
          "type": "uint256"
        },
        {
          "internalType": "uint256",
          "name": "tokenId",
          "type": "uint256"
        }
      ],
      "name": "ERC1155InsufficientBalance",
      "type": "error"
    },
    {
      "inputs": [
        {
          "internalType": "address",
          "name": "approver",
          "type": "address"
        }
      ],
      "name": "ERC1155InvalidApprover",
      "type": "error"
    },
    {
      "inputs": [
        {
          "internalType": "uint256",
          "name": "idsLength",
          "type": "uint256"
        },
        {
          "internalType": "uint256",
          "name": "valuesLength",
          "type": "uint256"
        }
      ],
      "name": "ERC1155InvalidArrayLength",
      "type": "error"
    },
    {
      "inputs": [
        {
          "internalType": "address",
          "name": "operator",
          "type": "address"
        }
      ],
      "name": "ERC1155InvalidOperator",
      "type": "error"
    },
    {
      "inputs": [
        {
          "internalType": "address",
          "name": "receiver",
          "type": "address"
        }
      ],
      "name": "ERC1155InvalidReceiver",
      "type": "error"
    },
    {
      "inputs": [
        {
          "internalType": "address",
          "name": "sender",
          "type": "address"
        }
      ],
      "name": "ERC1155InvalidSender",
      "type": "error"
    },
    {
      "inputs": [
        {
          "internalType": "address",
          "name": "operator",
          "type": "address"
        },
        {
          "internalType": "address",
          "name": "owner",
          "type": "address"
        }
      ],
      "name": "ERC1155MissingApprovalForAll",
      "type": "error"
    },
    {
      "inputs": [
        {
          "internalType": "address",
          "name": "owner",
          "type": "address"
        }
      ],
      "name": "OwnableInvalidOwner",
      "type": "error"
    },
    {
      "inputs": [
        {
          "internalType": "address",
          "name": "account",
          "type": "address"
        }
      ],
      "name": "OwnableUnauthorizedAccount",
      "type": "error"
    },
    {
      "anonymous": false,
      "inputs": [
        {
          "indexed": true,
          "internalType": "address",
          "name": "account",
          "type": "address"
        },
        {
          "indexed": true,
          "internalType": "address",
          "name": "operator",
          "type": "address"
        },
        {
          "indexed": false,
          "internalType": "bool",
          "name": "approved",
          "type": "bool"
        }
      ],
      "name": "ApprovalForAll",
      "type": "event"
    },
    {
      "anonymous": false,
      "inputs": [
        {
          "indexed": true,
          "internalType": "address",
          "name": "previousOwner",
          "type": "address"
        },
        {
          "indexed": true,
          "internalType": "address",
          "name": "newOwner",
          "type": "address"
        }
      ],
      "name": "OwnershipTransferred",
      "type": "event"
    },
    {
      "anonymous": false,
      "inputs": [
        {
          "indexed": true,
          "internalType": "address",
          "name": "operator",
          "type": "address"
        },
        {
          "indexed": true,
          "internalType": "address",
          "name": "from",
          "type": "address"
        },
        {
          "indexed": true,
          "internalType": "address",
          "name": "to",
          "type": "address"
        },
        {
          "indexed": false,
          "internalType": "uint256[]",
          "name": "ids",
          "type": "uint256[]"
        },
        {
          "indexed": false,
          "internalType": "uint256[]",
          "name": "values",
          "type": "uint256[]"
        }
      ],
      "name": "TransferBatch",
      "type": "event"
    },
    {
      "anonymous": false,
      "inputs": [
        {
          "indexed": true,
          "internalType": "address",
          "name": "operator",
          "type": "address"
        },
        {
          "indexed": true,
          "internalType": "address",
          "name": "from",
          "type": "address"
        },
        {
          "indexed": true,
          "internalType": "address",
          "name": "to",
          "type": "address"
        },
        {
          "indexed": false,
          "internalType": "uint256",
          "name": "id",
          "type": "uint256"
        },
        {
          "indexed": false,
          "internalType": "uint256",
          "name": "value",
          "type": "uint256"
        }
      ],
      "name": "TransferSingle",
      "type": "event"
    },
    {
      "anonymous": false,
      "inputs": [
        {
          "indexed": false,
          "internalType": "string",
          "name": "value",
          "type": "string"
        },
        {
          "indexed": true,
          "internalType": "uint256",
          "name": "id",
          "type": "uint256"
        }
      ],
      "name": "URI",
      "type": "event"
    },
    {
      "inputs": [
        {
          "internalType": "address",
          "name": "account",
          "type": "address"
        },
        {
          "internalType": "uint256",
          "name": "id",
          "type": "uint256"
        }
      ],
      "name": "balanceOf",
      "outputs": [
        {
          "internalType": "uint256",
          "name": "",
          "type": "uint256"
        }
      ],
      "stateMutability": "view",
      "type": "function"
    },
    {
      "inputs": [
        {
          "internalType": "address[]",
          "name": "accounts",
          "type": "address[]"
        },
        {
          "internalType": "uint256[]",
          "name": "ids",
          "type": "uint256[]"
        }
      ],
      "name": "balanceOfBatch",
      "outputs": [
        {
          "internalType": "uint256[]",
          "name": "",
          "type": "uint256[]"
        }
      ],
      "stateMutability": "view",
      "type": "function"
    },
    {
      "inputs": [
        {
          "internalType": "string",
          "name": "title",
          "type": "string"
        }
      ],
      "name": "createTrack",
      "outputs": [
        {
          "internalType": "uint256",
          "name": "",
          "type": "uint256"
        }
      ],
      "stateMutability": "nonpayable",
      "type": "function"
    },
    {
      "inputs": [
        {
          "internalType": "address",
          "name": "account",
          "type": "address"
        },
        {
          "internalType": "address",
          "name": "operator",
          "type": "address"
        }
      ],
      "name": "isApprovedForAll",
      "outputs": [
        {
          "internalType": "bool",
          "name": "",
          "type": "bool"
        }
      ],
      "stateMutability": "view",
      "type": "function"
    },
    {
      "inputs": [],
      "name": "owner",
      "outputs": [
        {
          "internalType": "address",
          "name": "",
          "type": "address"
        }
      ],
      "stateMutability": "view",
      "type": "function"
    },
    {
      "inputs": [],
      "name": "renounceOwnership",
      "outputs": [],
      "stateMutability": "nonpayable",
      "type": "function"
    },
    {
      "inputs": [
        {
          "internalType": "address",
          "name": "from",
          "type": "address"
        },
        {
          "internalType": "address",
          "name": "to",
          "type": "address"
        },
        {
          "internalType": "uint256[]",
          "name": "ids",
          "type": "uint256[]"
        },
        {
          "internalType": "uint256[]",
          "name": "values",
          "type": "uint256[]"
        },
        {
          "internalType": "bytes",
          "name": "data",
          "type": "bytes"
        }
      ],
      "name": "safeBatchTransferFrom",
      "outputs": [],
      "stateMutability": "nonpayable",
      "type": "function"
    },
    {
      "inputs": [
        {
          "internalType": "address",
          "name": "from",
          "type": "address"
        },
        {
          "internalType": "address",
          "name": "to",
          "type": "address"
        },
        {
          "internalType": "uint256",
          "name": "id",
          "type": "uint256"
        },
        {
          "internalType": "uint256",
          "name": "value",
          "type": "uint256"
        },
        {
          "internalType": "bytes",
          "name": "data",
          "type": "bytes"
        }
      ],
      "name": "safeTransferFrom",
      "outputs": [],
      "stateMutability": "nonpayable",
      "type": "function"
    },
    {
      "inputs": [
        {
          "internalType": "address",
          "name": "operator",
          "type": "address"
        },
        {
          "internalType": "bool",
          "name": "approved",
          "type": "bool"
        }
      ],
      "name": "setApprovalForAll",
      "outputs": [],
      "stateMutability": "nonpayable",
      "type": "function"
    },
    {
      "inputs": [
        {
          "internalType": "bytes4",
          "name": "interfaceId",
          "type": "bytes4"
        }
      ],
      "name": "supportsInterface",
      "outputs": [
        {
          "internalType": "bool",
          "name": "",
          "type": "bool"
        }
      ],
      "stateMutability": "view",
      "type": "function"
    },
    {
      "inputs": [],
      "name": "trackCount",
      "outputs": [
        {
          "internalType": "uint256",
          "name": "",
          "type": "uint256"
        }
      ],
      "stateMutability": "view",
      "type": "function"
    },
    {
      "inputs": [
        {
          "internalType": "uint256",
          "name": "",
          "type": "uint256"
        }
      ],
      "name": "tracks",
      "outputs": [
        {
          "internalType": "uint256",
          "name": "id",
          "type": "uint256"
        },
        {
          "internalType": "string",
          "name": "title",
          "type": "string"
        },
        {
          "internalType": "address",
          "name": "artist",
          "type": "address"
        },
        {
          "internalType": "bool",
          "name": "active",
          "type": "bool"
        }
      ],
      "stateMutability": "view",
      "type": "function"
    },
    {
      "inputs": [
        {
          "internalType": "address",
          "name": "newOwner",
          "type": "address"
        }
      ],
      "name": "transferOwnership",
      "outputs": [],
      "stateMutability": "nonpayable",
      "type": "function"
    },
    {
      "inputs": [
        {
          "internalType": "uint256",
          "name": "",
          "type": "uint256"
        }
      ],
      "name": "uri",
      "outputs": [
        {
          "internalType": "string",
          "name": "",
          "type": "string"
        }
      ],
      "stateMutability": "view",
      "type": "function"
    }
  ],
  "bytecode": "0x608060405260006004553480156200001657600080fd5b5033604051806020016040528060008152506200003981620000c760201b60201c565b50600073ffffffffffffffffffffffffffffffffffffffff168173ffffffffffffffffffffffffffffffffffffffff1603620000af5760006040517f1e4fbdf7000000000000000000000000000000000000000000000000000000008152600401620000a69190620001e7565b60405180910390fd5b620000c081620000dc60201b60201c565b5062000565565b8060029081620000d891906200047e565b5050565b6000600360009054906101000a900473ffffffffffffffffffffffffffffffffffffffff16905081600360006101000a81548173ffffffffffffffffffffffffffffffffffffffff021916908373ffffffffffffffffffffffffffffffffffffffff1602179055508173ffffffffffffffffffffffffffffffffffffffff168173ffffffffffffffffffffffffffffffffffffffff167f8be0079c531659141344cd1fd0a4f28419497f9722a3daafe3b4186f6b6457e060405160405180910390a35050565b600073ffffffffffffffffffffffffffffffffffffffff82169050919050565b6000620001cf82620001a2565b9050919050565b620001e181620001c2565b82525050565b6000602082019050620001fe6000830184620001d6565b92915050565b600081519050919050565b7f4e487b7100000000000000000000000000000000000000000000000000000000600052604160045260246000fd5b7f4e487b7100000000000000000000000000000000000000000000000000000000600052602260045260246000fd5b600060028204905060018216806200028657607f821691505b6020821081036200029c576200029b6200023e565b5b50919050565b60008190508160005260206000209050919050565b60006020601f8301049050919050565b600082821b905092915050565b600060088302620003067fffffffffffffffffffffffffffffffffffffffffffffffffffffffffffffffff82620002c7565b620003128683620002c7565b95508019841693508086168417925050509392505050565b6000819050919050565b6000819050919050565b60006200035f6200035962000353846200032a565b62000334565b6200032a565b9050919050565b6000819050919050565b6200037b836200033e565b620003936200038a8262000366565b848454620002d4565b825550505050565b600090565b620003aa6200039b565b620003b781848462000370565b505050565b5b81811015620003df57620003d3600082620003a0565b600181019050620003bd565b5050565b601f8211156200042e57620003f881620002a2565b6200040384620002b7565b8101602085101562000413578190505b6200042b6200042285620002b7565b830182620003bc565b50505b505050565b600082821c905092915050565b6000620004536000198460080262000433565b1980831691505092915050565b60006200046e838362000440565b9150826002028217905092915050565b620004898262000204565b67ffffffffffffffff811115620004a557620004a46200020f565b5b620004b182546200026d565b620004be828285620003e3565b600060209050601f831160018114620004f65760008415620004e1578287015190505b620004ed858262000460565b8655506200055d565b601f1984166200050686620002a2565b60005b82811015620005305784890151825560018201915060208501945060208101905062000509565b868310156200055057848901516200054c601f89168262000440565b8355505b6001600288020188555050505b505050505050565b6128ff80620005756000396000f3fe608060405234801561001057600080fd5b50600436106100e95760003560e01c8063a22cb4651161008c578063e985e9c511610066578063e985e9c51461025f578063f242432a1461028f578063f2fde38b146102ab578063f9dcdc5c146102c7576100e9565b8063a22cb465146101f2578063a2e345861461020e578063ab35678c14610241576100e9565b80632eb2c2d6116100c85780632eb2c2d61461017e5780634e1273f41461019a578063715018a6146101ca5780638da5cb5b146101d4576100e9565b8062fdd58e146100ee57806301ffc9a71461011e5780630e89341c1461014e575b600080fd5b6101086004803603810190610103919061192f565b6102f7565b604051610115919061197e565b60405180910390f35b610138600480360381019061013391906119f1565b610351565b6040516101459190611a39565b60405180910390f35b61016860048036038101906101639190611a54565b610433565b6040516101759190611b11565b60405180910390f35b61019860048036038101906101939190611d30565b6104c7565b005b6101b460048036038101906101af9190611ec2565b61056f565b6040516101c19190611ff8565b60405180910390f35b6101d261067e565b005b6101dc610692565b6040516101e99190612029565b60405180910390f35b61020c60048036038101906102079190612070565b6106bc565b005b61022860048036038101906102239190611a54565b6106d2565b60405161023894939291906120b0565b60405180910390f35b6102496107b7565b604051610256919061197e565b60405180910390f35b610279600480360381019061027491906120fc565b6107bd565b6040516102869190611a39565b60405180910390f35b6102a960048036038101906102a4919061213c565b610851565b005b6102c560048036038101906102c091906121d3565b6108f9565b005b6102e160048036038101906102dc91906122a1565b61097f565b6040516102ee919061197e565b60405180910390f35b600080600083815260200190815260200160002060008473ffffffffffffffffffffffffffffffffffffffff1673ffffffffffffffffffffffffffffffffffffffff16815260200190815260200160002054905092915050565b60007fd9b67a26000000000000000000000000000000000000000000000000000000007bffffffffffffffffffffffffffffffffffffffffffffffffffffffff1916827bffffffffffffffffffffffffffffffffffffffffffffffffffffffff1916148061041c57507f0e89341c000000000000000000000000000000000000000000000000000000007bffffffffffffffffffffffffffffffffffffffffffffffffffffffff1916827bffffffffffffffffffffffffffffffffffffffffffffffffffffffff1916145b8061042c575061042b82610a9c565b5b9050919050565b60606002805461044290612319565b80601f016020809104026020016040519081016040528092919081815260200182805461046e90612319565b80156104bb5780601f10610490576101008083540402835291602001916104bb565b820191906000526020600020905b81548152906001019060200180831161049e57829003601f168201915b50505050509050919050565b60006104d1610b06565b90508073ffffffffffffffffffffffffffffffffffffffff168673ffffffffffffffffffffffffffffffffffffffff1614158015610516575061051486826107bd565b155b1561055a5780866040517fe237d92200000000000000000000000000000000000000000000000000000000815260040161055192919061234a565b60405180910390fd5b6105678686868686610b0e565b505050505050565b606081518351146105bb57815183516040517f5b0599910000000000000000000000000000000000000000000000000000000081526004016105b2929190612373565b60405180910390fd5b6000835167ffffffffffffffff8111156105d8576105d7611b38565b5b6040519080825280602002602001820160405280156106065781602001602082028036833780820191505090505b50905060005b84518110156106735761064361062b8287610c0690919063ffffffff16565b61063e8387610c1a90919063ffffffff16565b6102f7565b8282815181106106565761065561239c565b5b6020026020010181815250508061066c906123fa565b905061060c565b508091505092915050565b610686610c2e565b6106906000610cb5565b565b6000600360009054906101000a900473ffffffffffffffffffffffffffffffffffffffff16905090565b6106ce6106c7610b06565b8383610d7b565b5050565b60056020528060005260406000206000915090508060000154908060010180546106fb90612319565b80601f016020809104026020016040519081016040528092919081815260200182805461072790612319565b80156107745780601f1061074957610100808354040283529160200191610774565b820191906000526020600020905b81548152906001019060200180831161075757829003601f168201915b5050505050908060020160009054906101000a900473ffffffffffffffffffffffffffffffffffffffff16908060020160149054906101000a900460ff16905084565b60045481565b6000600160008473ffffffffffffffffffffffffffffffffffffffff1673ffffffffffffffffffffffffffffffffffffffff16815260200190815260200160002060008373ffffffffffffffffffffffffffffffffffffffff1673ffffffffffffffffffffffffffffffffffffffff16815260200190815260200160002060009054906101000a900460ff16905092915050565b600061085b610b06565b90508073ffffffffffffffffffffffffffffffffffffffff168673ffffffffffffffffffffffffffffffffffffffff16141580156108a0575061089e86826107bd565b155b156108e45780866040517fe237d9220000000000000000000000000000000000000000000000000000000081526004016108db92919061234a565b60405180910390fd5b6108f18686868686610eeb565b505050505050565b610901610c2e565b600073ffffffffffffffffffffffffffffffffffffffff168173ffffffffffffffffffffffffffffffffffffffff16036109735760006040517f1e4fbdf700000000000000000000000000000000000000000000000000000000815260040161096a9190612029565b60405180910390fd5b61097c81610cb5565b50565b600060046000815480929190610994906123fa565b91905055506000600454905060405180608001604052808281526020018481526020013373ffffffffffffffffffffffffffffffffffffffff1681526020016001151581525060056000838152602001908152602001600020600082015181600001556020820151816001019081610a0c91906125ee565b5060408201518160020160006101000a81548173ffffffffffffffffffffffffffffffffffffffff021916908373ffffffffffffffffffffffffffffffffffffffff16021790555060608201518160020160146101000a81548160ff021916908315150217905550905050610a933382606460405180602001604052806000815250610ff6565b80915050919050565b60007f01ffc9a7000000000000000000000000000000000000000000000000000000007bffffffffffffffffffffffffffffffffffffffffffffffffffffffff1916827bffffffffffffffffffffffffffffffffffffffffffffffffffffffff1916149050919050565b600033905090565b600073ffffffffffffffffffffffffffffffffffffffff168473ffffffffffffffffffffffffffffffffffffffff1603610b805760006040517f57f447ce000000000000000000000000000000000000000000000000000000008152600401610b779190612029565b60405180910390fd5b600073ffffffffffffffffffffffffffffffffffffffff168573ffffffffffffffffffffffffffffffffffffffff1603610bf25760006040517f01a83514000000000000000000000000000000000000000000000000000000008152600401610be99190612029565b60405180910390fd5b610bff858585858561108f565b5050505050565b600060208202602084010151905092915050565b600060208202602084010151905092915050565b610c36610b06565b73ffffffffffffffffffffffffffffffffffffffff16610c54610692565b73ffffffffffffffffffffffffffffffffffffffff1614610cb357610c77610b06565b6040517f118cdaa7000000000000000000000000000000000000000000000000000000008152600401610caa9190612029565b60405180910390fd5b565b6000600360009054906101000a900473ffffffffffffffffffffffffffffffffffffffff16905081600360006101000a81548173ffffffffffffffffffffffffffffffffffffffff021916908373ffffffffffffffffffffffffffffffffffffffff1602179055508173ffffffffffffffffffffffffffffffffffffffff168173ffffffffffffffffffffffffffffffffffffffff167f8be0079c531659141344cd1fd0a4f28419497f9722a3daafe3b4186f6b6457e060405160405180910390a35050565b600073ffffffffffffffffffffffffffffffffffffffff168273ffffffffffffffffffffffffffffffffffffffff1603610ded5760006040517fced3e100000000000000000000000000000000000000000000000000000000008152600401610de49190612029565b60405180910390fd5b80600160008573ffffffffffffffffffffffffffffffffffffffff1673ffffffffffffffffffffffffffffffffffffffff16815260200190815260200160002060008473ffffffffffffffffffffffffffffffffffffffff1673ffffffffffffffffffffffffffffffffffffffff16815260200190815260200160002060006101000a81548160ff0219169083151502179055508173ffffffffffffffffffffffffffffffffffffffff168373ffffffffffffffffffffffffffffffffffffffff167f17307eab39ab6107e8899845ad3d59bd9653f200f220920489ca2b5937696c3183604051610ede9190611a39565b60405180910390a3505050565b600073ffffffffffffffffffffffffffffffffffffffff168473ffffffffffffffffffffffffffffffffffffffff1603610f5d5760006040517f57f447ce000000000000000000000000000000000000000000000000000000008152600401610f549190612029565b60405180910390fd5b600073ffffffffffffffffffffffffffffffffffffffff168573ffffffffffffffffffffffffffffffffffffffff1603610fcf5760006040517f01a83514000000000000000000000000000000000000000000000000000000008152600401610fc69190612029565b60405180910390fd5b600080610fdc8585611141565b91509150610fed878784848761108f565b50505050505050565b600073ffffffffffffffffffffffffffffffffffffffff168473ffffffffffffffffffffffffffffffffffffffff16036110685760006040517f57f447ce00000000000000000000000000000000000000000000000000000000815260040161105f9190612029565b60405180910390fd5b6000806110758585611141565b9150915061108760008784848761108f565b505050505050565b61109b85858585611171565b600073ffffffffffffffffffffffffffffffffffffffff168473ffffffffffffffffffffffffffffffffffffffff161461113a5760006110d9610b06565b905060018451036111295760006110fa600086610c1a90919063ffffffff16565b90506000611112600086610c1a90919063ffffffff16565b905061112283898985858961151f565b5050611138565b6111378187878787876116d3565b5b505b5050505050565b60608060405191506001825283602083015260408201905060018152826020820152604081016040529250929050565b80518251146111bb57815181516040517f5b0599910000000000000000000000000000000000000000000000000000000081526004016111b2929190612373565b60405180910390fd5b60006111c5610b06565b905060005b83518110156113da5760006111e88286610c1a90919063ffffffff16565b905060006111ff8386610c1a90919063ffffffff16565b9050600073ffffffffffffffffffffffffffffffffffffffff168873ffffffffffffffffffffffffffffffffffffffff161461132c57600080600084815260200190815260200160002060008a73ffffffffffffffffffffffffffffffffffffffff1673ffffffffffffffffffffffffffffffffffffffff168152602001908152602001600020549050818110156112d457888183856040517f03dee4c50000000000000000000000000000000000000000000000000000000081526004016112cb94939291906126c0565b60405180910390fd5b81810360008085815260200190815260200160002060008b73ffffffffffffffffffffffffffffffffffffffff1673ffffffffffffffffffffffffffffffffffffffff16815260200190815260200160002081905550505b600073ffffffffffffffffffffffffffffffffffffffff168773ffffffffffffffffffffffffffffffffffffffff16146113c7578060008084815260200190815260200160002060008973ffffffffffffffffffffffffffffffffffffffff1673ffffffffffffffffffffffffffffffffffffffff16815260200190815260200160002060008282546113bf9190612705565b925050819055505b5050806113d3906123fa565b90506111ca565b5060018351036114995760006113fa600085610c1a90919063ffffffff16565b90506000611412600085610c1a90919063ffffffff16565b90508573ffffffffffffffffffffffffffffffffffffffff168773ffffffffffffffffffffffffffffffffffffffff168473ffffffffffffffffffffffffffffffffffffffff167fc3d58168c5ae7397731d063d5bbf3d657854427343f4c083240f7aacaa2d0f62858560405161148a929190612373565b60405180910390a45050611518565b8373ffffffffffffffffffffffffffffffffffffffff168573ffffffffffffffffffffffffffffffffffffffff168273ffffffffffffffffffffffffffffffffffffffff167f4a39dc06d4c0dbc64b70af90fd698a233a518aa5d07e595d983b8c0526c8f7fb868660405161150f929190612739565b60405180910390a45b5050505050565b60008473ffffffffffffffffffffffffffffffffffffffff163b11156116cb578373ffffffffffffffffffffffffffffffffffffffff1663f23a6e6187878686866040518663ffffffff1660e01b81526004016115809594939291906127c5565b6020604051808303816000875af19250505080156115bc57506040513d601f19601f820116820180604052508101906115b99190612834565b60015b611640573d80600081146115ec576040519150601f19603f3d011682016040523d82523d6000602084013e6115f1565b606091505b50600081510361163857846040517f57f447ce00000000000000000000000000000000000000000000000000000000815260040161162f9190612029565b60405180910390fd5b805181602001fd5b63f23a6e6160e01b7bffffffffffffffffffffffffffffffffffffffffffffffffffffffff1916817bffffffffffffffffffffffffffffffffffffffffffffffffffffffff1916146116c957846040517f57f447ce0000000000000000000000000000000000000000000000000000000081526004016116c09190612029565b60405180910390fd5b505b505050505050565b60008473ffffffffffffffffffffffffffffffffffffffff163b111561187f578373ffffffffffffffffffffffffffffffffffffffff1663bc197c8187878686866040518663ffffffff1660e01b8152600401611734959493929190612861565b6020604051808303816000875af192505050801561177057506040513d601f19601f8201168201806040525081019061176d9190612834565b60015b6117f4573d80600081146117a0576040519150601f19603f3d011682016040523d82523d6000602084013e6117a5565b606091505b5060008151036117ec57846040517f57f447ce0000000000000000000000000000000000000000000000000000000081526004016117e39190612029565b60405180910390fd5b805181602001fd5b63bc197c8160e01b7bffffffffffffffffffffffffffffffffffffffffffffffffffffffff1916817bffffffffffffffffffffffffffffffffffffffffffffffffffffffff19161461187d57846040517f57f447ce0000000000000000000000000000000000000000000000000000000081526004016118749190612029565b60405180910390fd5b505b505050505050565b6000604051905090565b600080fd5b600080fd5b600073ffffffffffffffffffffffffffffffffffffffff82169050919050565b60006118c68261189b565b9050919050565b6118d6816118bb565b81146118e157600080fd5b50565b6000813590506118f3816118cd565b92915050565b6000819050919050565b61190c816118f9565b811461191757600080fd5b50565b60008135905061192981611903565b92915050565b6000806040838503121561194657611945611891565b5b6000611954858286016118e4565b92505060206119658582860161191a565b9150509250929050565b611978816118f9565b82525050565b6000602082019050611993600083018461196f565b92915050565b60007fffffffff0000000000000000000000000000000000000000000000000000000082169050919050565b6119ce81611999565b81146119d957600080fd5b50565b6000813590506119eb816119c5565b92915050565b600060208284031215611a0757611a06611891565b5b6000611a15848285016119dc565b91505092915050565b60008115159050919050565b611a3381611a1e565b82525050565b6000602082019050611a4e6000830184611a2a565b92915050565b600060208284031215611a6a57611a69611891565b5b6000611a788482850161191a565b91505092915050565b600081519050919050565b600082825260208201905092915050565b60005b83811015611abb578082015181840152602081019050611aa0565b60008484015250505050565b6000601f19601f8301169050919050565b6000611ae382611a81565b611aed8185611a8c565b9350611afd818560208601611a9d565b611b0681611ac7565b840191505092915050565b60006020820190508181036000830152611b2b8184611ad8565b905092915050565b600080fd5b7f4e487b7100000000000000000000000000000000000000000000000000000000600052604160045260246000fd5b611b7082611ac7565b810181811067ffffffffffffffff82111715611b8f57611b8e611b38565b5b80604052505050565b6000611ba2611887565b9050611bae8282611b67565b919050565b600067ffffffffffffffff821115611bce57611bcd611b38565b5b602082029050602081019050919050565b600080fd5b6000611bf7611bf284611bb3565b611b98565b90508083825260208201905060208402830185811115611c1a57611c19611bdf565b5b835b81811015611c435780611c2f888261191a565b845260208401935050602081019050611c1c565b5050509392505050565b600082601f830112611c6257611c61611b33565b5b8135611c72848260208601611be4565b91505092915050565b600080fd5b600067ffffffffffffffff821115611c9b57611c9a611b38565b5b611ca482611ac7565b9050602081019050919050565b82818337600083830152505050565b6000611cd3611cce84611c80565b611b98565b905082815260208101848484011115611cef57611cee611c7b565b5b611cfa848285611cb1565b509392505050565b600082601f830112611d1757611d16611b33565b5b8135611d27848260208601611cc0565b91505092915050565b600080600080600060a08688031215611d4c57611d4b611891565b5b6000611d5a888289016118e4565b9550506020611d6b888289016118e4565b945050604086013567ffffffffffffffff811115611d8c57611d8b611896565b5b611d9888828901611c4d565b935050606086013567ffffffffffffffff811115611db957611db8611896565b5b611dc588828901611c4d565b925050608086013567ffffffffffffffff811115611de657611de5611896565b5b611df288828901611d02565b9150509295509295909350565b600067ffffffffffffffff821115611e1a57611e19611b38565b5b602082029050602081019050919050565b6000611e3e611e3984611dff565b611b98565b90508083825260208201905060208402830185811115611e6157611e60611bdf565b5b835b81811015611e8a5780611e7688826118e4565b845260208401935050602081019050611e63565b5050509392505050565b600082601f830112611ea957611ea8611b33565b5b8135611eb9848260208601611e2b565b91505092915050565b60008060408385031215611ed957611ed8611891565b5b600083013567ffffffffffffffff811115611ef757611ef6611896565b5b611f0385828601611e94565b925050602083013567ffffffffffffffff811115611f2457611f23611896565b5b611f3085828601611c4d565b9150509250929050565b600081519050919050565b600082825260208201905092915050565b6000819050602082019050919050565b611f6f816118f9565b82525050565b6000611f818383611f66565b60208301905092915050565b6000602082019050919050565b6000611fa582611f3a565b611faf8185611f45565b9350611fba83611f56565b8060005b83811015611feb578151611fd28882611f75565b9750611fdd83611f8d565b925050600181019050611fbe565b5085935050505092915050565b600060208201905081810360008301526120128184611f9a565b905092915050565b612023816118bb565b82525050565b600060208201905061203e600083018461201a565b92915050565b61204d81611a1e565b811461205857600080fd5b50565b60008135905061206a81612044565b92915050565b6000806040838503121561208757612086611891565b5b6000612095858286016118e4565b92505060206120a68582860161205b565b9150509250929050565b60006080820190506120c5600083018761196f565b81810360208301526120d78186611ad8565b90506120e6604083018561201a565b6120f36060830184611a2a565b95945050505050565b6000806040838503121561211357612112611891565b5b6000612121858286016118e4565b9250506020612132858286016118e4565b9150509250929050565b600080600080600060a0868803121561215857612157611891565b5b6000612166888289016118e4565b9550506020612177888289016118e4565b94505060406121888882890161191a565b93505060606121998882890161191a565b925050608086013567ffffffffffffffff8111156121ba576121b9611896565b5b6121c688828901611d02565b9150509295509295909350565b6000602082840312156121e9576121e8611891565b5b60006121f7848285016118e4565b91505092915050565b600067ffffffffffffffff82111561221b5761221a611b38565b5b61222482611ac7565b9050602081019050919050565b600061224461223f84612200565b611b98565b9050828152602081018484840111156122605761225f611c7b565b5b61226b848285611cb1565b509392505050565b600082601f83011261228857612287611b33565b5b8135612298848260208601612231565b91505092915050565b6000602082840312156122b7576122b6611891565b5b600082013567ffffffffffffffff8111156122d5576122d4611896565b5b6122e184828501612273565b91505092915050565b7f4e487b7100000000000000000000000000000000000000000000000000000000600052602260045260246000fd5b6000600282049050600182168061233157607f821691505b602082108103612344576123436122ea565b5b50919050565b600060408201905061235f600083018561201a565b61236c602083018461201a565b9392505050565b6000604082019050612388600083018561196f565b612395602083018461196f565b9392505050565b7f4e487b7100000000000000000000000000000000000000000000000000000000600052603260045260246000fd5b7f4e487b7100000000000000000000000000000000000000000000000000000000600052601160045260246000fd5b6000612405826118f9565b91507fffffffffffffffffffffffffffffffffffffffffffffffffffffffffffffffff8203612437576124366123cb565b5b600182019050919050565b60008190508160005260206000209050919050565b60006020601f8301049050919050565b600082821b905092915050565b6000600883026124a47fffffffffffffffffffffffffffffffffffffffffffffffffffffffffffffffff82612467565b6124ae8683612467565b95508019841693508086168417925050509392505050565b6000819050919050565b60006124eb6124e66124e1846118f9565b6124c6565b6118f9565b9050919050565b6000819050919050565b612505836124d0565b612519612511826124f2565b848454612474565b825550505050565b600090565b61252e612521565b6125398184846124fc565b505050565b5b8181101561255d57612552600082612526565b60018101905061253f565b5050565b601f8211156125a25761257381612442565b61257c84612457565b8101602085101561258b578190505b61259f61259785612457565b83018261253e565b50505b505050565b600082821c905092915050565b60006125c5600019846008026125a7565b1980831691505092915050565b60006125de83836125b4565b9150826002028217905092915050565b6125f782611a81565b67ffffffffffffffff8111156126105761260f611b38565b5b61261a8254612319565b612625828285612561565b600060209050601f8311600181146126585760008415612646578287015190505b61265085826125d2565b8655506126b8565b601f19841661266686612442565b60005b8281101561268e57848901518255600182019150602085019450602081019050612669565b868310156126ab57848901516126a7601f8916826125b4565b8355505b6001600288020188555050505b505050505050565b60006080820190506126d5600083018761201a565b6126e2602083018661196f565b6126ef604083018561196f565b6126fc606083018461196f565b95945050505050565b6000612710826118f9565b915061271b836118f9565b9250828201905080821115612733576127326123cb565b5b92915050565b600060408201905081810360008301526127538185611f9a565b905081810360208301526127678184611f9a565b90509392505050565b600081519050919050565b600082825260208201905092915050565b600061279782612770565b6127a1818561277b565b93506127b1818560208601611a9d565b6127ba81611ac7565b840191505092915050565b600060a0820190506127da600083018861201a565b6127e7602083018761201a565b6127f4604083018661196f565b612801606083018561196f565b8181036080830152612813818461278c565b90509695505050505050565b60008151905061282e816119c5565b92915050565b60006020828403121561284a57612849611891565b5b60006128588482850161281f565b91505092915050565b600060a082019050612876600083018861201a565b612883602083018761201a565b81810360408301526128958186611f9a565b905081810360608301526128a98185611f9a565b905081810360808301526128bd818461278c565b9050969550505050505056fea264697066735822122094f51b71447f2b37df7bbb95051ce42c7a07d5d50884e9f9eee0cef24dc2258764736f6c63430008140033",
  "linkReferences": {},
  "deployedLinkReferences": {}
}