{
  "_format": "hh-sol-artifact-1",
  "contractName": "ArtistFunding",
  "sourceName": "contracts/ArtistFunding.sol",
  "abi": [
    {
      "inputs": [],
      "stateMutability": "nonpayable",
      "type": "constructor"
    },
    {
      "inputs": [
        {
          "internalType": "address",
          "name": "owner",
          "type": "address"
        }
      ],
      "name": "OwnableInvalidOwner",
      "type": "error"
    },
    {
      "inputs": [
        {
          "internalType": "address",
          "name": "account",
          "type": "address"
        }
      ],
      "name": "OwnableUnauthorizedAccount",
      "type": "error"
    },
    {
      "anonymous": false,
      "inputs": [
        {
          "indexed": false,
          "internalType": "uint256",
          "name": "campaignId",
          "type": "uint256"
        },
        {
          "indexed": false,
          "internalType": "string",
          "name": "title",
          "type": "string"
        },
        {
          "indexed": false,
          "internalType": "address",
          "name": "artist",
          "type": "address"
        }
      ],
      "name": "CampaignCreated",
      "type": "event"
    },
    {
      "anonymous": false,
      "inputs": [
        {
          "indexed": false,
          "internalType": "uint256",
          "name": "campaignId",
          "type": "uint256"
        },
        {
          "indexed": false,
          "internalType": "address",
          "name": "contributor",
          "type": "address"
        },
        {
          "indexed": false,
          "internalType": "uint256",
          "name": "amount",
          "type": "uint256"
        }
      ],
      "name": "ContributionReceived",
      "type": "event"
    },
    {
      "anonymous": false,
      "inputs": [
        {
          "indexed": true,
          "internalType": "address",
          "name": "previousOwner",
          "type": "address"
        },
        {
          "indexed": true,
          "internalType": "address",
          "name": "newOwner",
          "type": "address"
        }
      ],
      "name": "OwnershipTransferred",
      "type": "event"
    },
    {
      "inputs": [],
      "name": "campaignCount",
      "outputs": [
        {
          "internalType": "uint256",
          "name": "",
          "type": "uint256"
        }
      ],
      "stateMutability": "view",
      "type": "function"
    },
    {
      "inputs": [
        {
          "internalType": "uint256",
          "name": "",
          "type": "uint256"
        }
      ],
      "name": "campaigns",
      "outputs": [
        {
          "internalType": "uint256",
          "name": "id",
          "type": "uint256"
        },
        {
          "internalType": "string",
          "name": "title",
          "type": "string"
        },
        {
          "internalType": "address",
          "name": "artist",
          "type": "address"
        },
        {
          "internalType": "uint256",
          "name": "goal",
          "type": "uint256"
        },
        {
          "internalType": "uint256",
          "name": "raised",
          "type": "uint256"
        },
        {
          "internalType": "bool",
          "name": "active",
          "type": "bool"
        }
      ],
      "stateMutability": "view",
      "type": "function"
    },
    {
      "inputs": [
        {
          "internalType": "uint256",
          "name": "campaignId",
          "type": "uint256"
        },
        {
          "internalType": "uint256",
          "name": "tierId",
          "type": "uint256"
        }
      ],
      "name": "contribute",
      "outputs": [],
      "stateMutability": "payable",
      "type": "function"
    },
    {
      "inputs": [
        {
          "internalType": "uint256",
          "name": "",
          "type": "uint256"
        },
        {
          "internalType": "address",
          "name": "",
          "type": "address"
        }
      ],
      "name": "contributions",
      "outputs": [
        {
          "internalType": "uint256",
          "name": "",
          "type": "uint256"
        }
      ],
      "stateMutability": "view",
      "type": "function"
    },
    {
      "inputs": [
        {
          "internalType": "string",
          "name": "title",
          "type": "string"
        },
        {
          "internalType": "uint256",
          "name": "goal",
          "type": "uint256"
        }
      ],
      "name": "createCampaign",
      "outputs": [
        {
          "internalType": "uint256",
          "name": "",
          "type": "uint256"
        }
      ],
      "stateMutability": "nonpayable",
      "type": "function"
    },
    {
      "inputs": [
        {
          "internalType": "uint256",
          "name": "campaignId",
          "type": "uint256"
        }
      ],
      "name": "getCampaign",
      "outputs": [
        {
          "internalType": "uint256",
          "name": "id",
          "type": "uint256"
        },
        {
          "internalType": "string",
          "name": "title",
          "type": "string"
        },
        {
          "internalType": "address",
          "name": "artist",
          "type": "address"
        },
        {
          "internalType": "uint256",
          "name": "goal",
          "type": "uint256"
        },
        {
          "internalType": "uint256",
          "name": "raised",
          "type": "uint256"
        },
        {
          "internalType": "bool",
          "name": "active",
          "type": "bool"
        }
      ],
      "stateMutability": "view",
      "type": "function"
    },
    {
      "inputs": [
        {
          "internalType": "uint256",
          "name": "campaignId",
          "type": "uint256"
        },
        {
          "internalType": "uint256",
          "name": "tierId",
          "type": "uint256"
        }
      ],
      "name": "getTier",
      "outputs": [
        {
          "internalType": "string",
          "name": "name",
          "type": "string"
        },
        {
          "internalType": "uint256",
          "name": "minimumContribution",
          "type": "uint256"
        },
        {
          "internalType": "uint256",
          "name": "royaltyPercentage",
          "type": "uint256"
        }
      ],
      "stateMutability": "view",
      "type": "function"
    },
    {
      "inputs": [],
      "name": "owner",
      "outputs": [
        {
          "internalType": "address",
          "name": "",
          "type": "address"
        }
      ],
      "stateMutability": "view",
      "type": "function"
    },
    {
      "inputs": [],
      "name": "renounceOwnership",
      "outputs": [],
      "stateMutability": "nonpayable",
      "type": "function"
    },
    {
      "inputs": [
        {
          "internalType": "uint256",
          "name": "",
          "type": "uint256"
        },
        {
          "internalType": "uint256",
          "name": "",
          "type": "uint256"
        }
      ],
      "name": "tiers",
      "outputs": [
        {
          "internalType": "string",
          "name": "name",
          "type": "string"
        },
        {
          "internalType": "uint256",
          "name": "minimumContribution",
          "type": "uint256"
        },
        {
          "internalType": "uint256",
          "name": "royaltyPercentage",
          "type": "uint256"
        }
      ],
      "stateMutability": "view",
      "type": "function"
    },
    {
      "inputs": [
        {
          "internalType": "address",
          "name": "newOwner",
          "type": "address"
        }
      ],
      "name": "transferOwnership",
      "outputs": [],
      "stateMutability": "nonpayable",
      "type": "function"
    }
  ],
  "bytecode": "0x608060405260006004553480156200001657600080fd5b5033600073ffffffffffffffffffffffffffffffffffffffff168173ffffffffffffffffffffffffffffffffffffffff16036200008d5760006040517f1e4fbdf7000000000000000000000000000000000000000000000000000000008152600401620000849190620001ae565b60405180910390fd5b6200009e81620000a560201b60201c565b50620001cb565b60008060009054906101000a900473ffffffffffffffffffffffffffffffffffffffff169050816000806101000a81548173ffffffffffffffffffffffffffffffffffffffff021916908373ffffffffffffffffffffffffffffffffffffffff1602179055508173ffffffffffffffffffffffffffffffffffffffff168173ffffffffffffffffffffffffffffffffffffffff167f8be0079c531659141344cd1fd0a4f28419497f9722a3daafe3b4186f6b6457e060405160405180910390a35050565b600073ffffffffffffffffffffffffffffffffffffffff82169050919050565b6000620001968262000169565b9050919050565b620001a88162000189565b82525050565b6000602082019050620001c560008301846200019d565b92915050565b6117e880620001db6000396000f3fe60806040526004361061009c5760003560e01c80637274e30d116100645780637274e30d146101b85780638c590917146101e35780638da5cb5b146101ff578063ca8999ca1461022a578063f102a67c14610269578063f2fde38b146102a65761009c565b8063141961bc146100a15780633d891f59146100e357806351355cfb146101205780635598f8cc1461015f578063715018a6146101a1575b600080fd5b3480156100ad57600080fd5b506100c860048036038101906100c39190610e6e565b6102cf565b6040516100da96959493929190610f96565b60405180910390f35b3480156100ef57600080fd5b5061010a6004803603810190610105919061102a565b6103c0565b604051610117919061106a565b60405180910390f35b34801561012c57600080fd5b5061014760048036038101906101429190611085565b6103e5565b604051610156939291906110c5565b60405180910390f35b34801561016b57600080fd5b5061018660048036038101906101819190610e6e565b6104ba565b60405161019896959493929190610f96565b60405180910390f35b3480156101ad57600080fd5b506101b66105c7565b005b3480156101c457600080fd5b506101cd6105db565b6040516101da919061106a565b60405180910390f35b6101fd60048036038101906101f89190611085565b6105e1565b005b34801561020b57600080fd5b50610214610805565b6040516102219190611103565b60405180910390f35b34801561023657600080fd5b50610251600480360381019061024c9190611085565b61082e565b604051610260939291906110c5565b60405180910390f35b34801561027557600080fd5b50610290600480360381019061028b9190611253565b6108ed565b60405161029d919061106a565b60405180910390f35b3480156102b257600080fd5b506102cd60048036038101906102c891906112af565b610c4b565b005b60016020528060005260406000206000915090508060000154908060010180546102f89061130b565b80601f01602080910402602001604051908101604052809291908181526020018280546103249061130b565b80156103715780601f1061034657610100808354040283529160200191610371565b820191906000526020600020905b81548152906001019060200180831161035457829003601f168201915b5050505050908060020160009054906101000a900473ffffffffffffffffffffffffffffffffffffffff16908060030154908060040154908060050160009054906101000a900460ff16905086565b6003602052816000526040600020602052806000526040600020600091509150505481565b606060008060006002600087815260200190815260200160002060008681526020019081526020016000209050806000018160010154826002015482805461042c9061130b565b80601f01602080910402602001604051908101604052809291908181526020018280546104589061130b565b80156104a55780601f1061047a576101008083540402835291602001916104a5565b820191906000526020600020905b81548152906001019060200180831161048857829003601f168201915b50505050509250935093509350509250925092565b6000606060008060008060006001600089815260200190815260200160002090508060000154816001018260020160009054906101000a900473ffffffffffffffffffffffffffffffffffffffff16836003015484600401548560050160009054906101000a900460ff168480546105319061130b565b80601f016020809104026020016040519081016040528092919081815260200182805461055d9061130b565b80156105aa5780601f1061057f576101008083540402835291602001916105aa565b820191906000526020600020905b81548152906001019060200180831161058d57829003601f168201915b505050505094509650965096509650965096505091939550919395565b6105cf610cd1565b6105d96000610d58565b565b60045481565b6000600160008481526020019081526020016000209050600060026000858152602001908152602001600020600084815260200190815260200160002090508160050160009054906101000a900460ff16610671576040517f08c379a000000000000000000000000000000000000000000000000000000000815260040161066890611388565b60405180910390fd5b80600101543410156106b8576040517f08c379a00000000000000000000000000000000000000000000000000000000081526004016106af906113f4565b60405180910390fd5b348260040160008282546106cc9190611443565b92505081905550346003600086815260200190815260200160002060003373ffffffffffffffffffffffffffffffffffffffff1673ffffffffffffffffffffffffffffffffffffffff168152602001908152602001600020819055507f865c884d49c8cecaef108efb20f7d282f26c0f9b0d24dd48e5592d4e02ec658d84333460405161075b93929190611477565b60405180910390a181600301548260040154106107ff578160020160009054906101000a900473ffffffffffffffffffffffffffffffffffffffff1673ffffffffffffffffffffffffffffffffffffffff166108fc83600401549081150290604051600060405180830381858888f193505050501580156107e0573d6000803e3d6000fd5b5060008260050160006101000a81548160ff0219169083151502179055505b50505050565b60008060009054906101000a900473ffffffffffffffffffffffffffffffffffffffff16905090565b60026020528160005260406000206020528060005260406000206000915091505080600001805461085e9061130b565b80601f016020809104026020016040519081016040528092919081815260200182805461088a9061130b565b80156108d75780601f106108ac576101008083540402835291602001916108d7565b820191906000526020600020905b8154815290600101906020018083116108ba57829003601f168201915b5050505050908060010154908060020154905083565b600060046000815480929190610902906114ae565b9190505550600060045490506040518060c001604052808281526020018581526020013373ffffffffffffffffffffffffffffffffffffffff16815260200184815260200160008152602001600115158152506001600083815260200190815260200160002060008201518160000155602082015181600101908161098791906116a2565b5060408201518160020160006101000a81548173ffffffffffffffffffffffffffffffffffffffff021916908373ffffffffffffffffffffffffffffffffffffffff160217905550606082015181600301556080820151816004015560a08201518160050160006101000a81548160ff02191690831515021790555090505060405180606001604052806040518060400160405280600681526020017f42726f6e7a6500000000000000000000000000000000000000000000000000008152508152602001662386f26fc1000081526020016005815250600260008381526020019081526020016000206000600181526020019081526020016000206000820151816000019081610a9891906116a2565b50602082015181600101556040820151816002015590505060405180606001604052806040518060400160405280600681526020017f53696c7665720000000000000000000000000000000000000000000000000000815250815260200167016345785d8a00008152602001600a815250600260008381526020019081526020016000206000600281526020019081526020016000206000820151816000019081610b4391906116a2565b50602082015181600101556040820151816002015590505060405180606001604052806040518060400160405280600481526020017f476f6c64000000000000000000000000000000000000000000000000000000008152508152602001670de0b6b3a764000081526020016064815250600260008381526020019081526020016000206000600381526020019081526020016000206000820151816000019081610bee91906116a2565b5060208201518160010155604082015181600201559050507f2750eae5c1c1d8000d7e674f15576524a1b7e24f4a33052e9d80ce3889556e39818533604051610c3993929190611774565b60405180910390a18091505092915050565b610c53610cd1565b600073ffffffffffffffffffffffffffffffffffffffff168173ffffffffffffffffffffffffffffffffffffffff1603610cc55760006040517f1e4fbdf7000000000000000000000000000000000000000000000000000000008152600401610cbc9190611103565b60405180910390fd5b610cce81610d58565b50565b610cd9610e1c565b73ffffffffffffffffffffffffffffffffffffffff16610cf7610805565b73ffffffffffffffffffffffffffffffffffffffff1614610d5657610d1a610e1c565b6040517f118cdaa7000000000000000000000000000000000000000000000000000000008152600401610d4d9190611103565b60405180910390fd5b565b60008060009054906101000a900473ffffffffffffffffffffffffffffffffffffffff169050816000806101000a81548173ffffffffffffffffffffffffffffffffffffffff021916908373ffffffffffffffffffffffffffffffffffffffff1602179055508173ffffffffffffffffffffffffffffffffffffffff168173ffffffffffffffffffffffffffffffffffffffff167f8be0079c531659141344cd1fd0a4f28419497f9722a3daafe3b4186f6b6457e060405160405180910390a35050565b600033905090565b6000604051905090565b600080fd5b600080fd5b6000819050919050565b610e4b81610e38565b8114610e5657600080fd5b50565b600081359050610e6881610e42565b92915050565b600060208284031215610e8457610e83610e2e565b5b6000610e9284828501610e59565b91505092915050565b610ea481610e38565b82525050565b600081519050919050565b600082825260208201905092915050565b60005b83811015610ee4578082015181840152602081019050610ec9565b60008484015250505050565b6000601f19601f8301169050919050565b6000610f0c82610eaa565b610f168185610eb5565b9350610f26818560208601610ec6565b610f2f81610ef0565b840191505092915050565b600073ffffffffffffffffffffffffffffffffffffffff82169050919050565b6000610f6582610f3a565b9050919050565b610f7581610f5a565b82525050565b60008115159050919050565b610f9081610f7b565b82525050565b600060c082019050610fab6000830189610e9b565b8181036020830152610fbd8188610f01565b9050610fcc6040830187610f6c565b610fd96060830186610e9b565b610fe66080830185610e9b565b610ff360a0830184610f87565b979650505050505050565b61100781610f5a565b811461101257600080fd5b50565b60008135905061102481610ffe565b92915050565b6000806040838503121561104157611040610e2e565b5b600061104f85828601610e59565b925050602061106085828601611015565b9150509250929050565b600060208201905061107f6000830184610e9b565b92915050565b6000806040838503121561109c5761109b610e2e565b5b60006110aa85828601610e59565b92505060206110bb85828601610e59565b9150509250929050565b600060608201905081810360008301526110df8186610f01565b90506110ee6020830185610e9b565b6110fb6040830184610e9b565b949350505050565b60006020820190506111186000830184610f6c565b92915050565b600080fd5b600080fd5b7f4e487b7100000000000000000000000000000000000000000000000000000000600052604160045260246000fd5b61116082610ef0565b810181811067ffffffffffffffff8211171561117f5761117e611128565b5b80604052505050565b6000611192610e24565b905061119e8282611157565b919050565b600067ffffffffffffffff8211156111be576111bd611128565b5b6111c782610ef0565b9050602081019050919050565b82818337600083830152505050565b60006111f66111f1846111a3565b611188565b90508281526020810184848401111561121257611211611123565b5b61121d8482856111d4565b509392505050565b600082601f83011261123a5761123961111e565b5b813561124a8482602086016111e3565b91505092915050565b6000806040838503121561126a57611269610e2e565b5b600083013567ffffffffffffffff81111561128857611287610e33565b5b61129485828601611225565b92505060206112a585828601610e59565b9150509250929050565b6000602082840312156112c5576112c4610e2e565b5b60006112d384828501611015565b91505092915050565b7f4e487b7100000000000000000000000000000000000000000000000000000000600052602260045260246000fd5b6000600282049050600182168061132357607f821691505b602082108103611336576113356112dc565b5b50919050565b7f43616d706169676e206e6f742061637469766500000000000000000000000000600082015250565b6000611372601383610eb5565b915061137d8261133c565b602082019050919050565b600060208201905081810360008301526113a181611365565b9050919050565b7f42656c6f77206d696e696d756d20636f6e747269627574696f6e000000000000600082015250565b60006113de601a83610eb5565b91506113e9826113a8565b602082019050919050565b6000602082019050818103600083015261140d816113d1565b9050919050565b7f4e487b7100000000000000000000000000000000000000000000000000000000600052601160045260246000fd5b600061144e82610e38565b915061145983610e38565b925082820190508082111561147157611470611414565b5b92915050565b600060608201905061148c6000830186610e9b565b6114996020830185610f6c565b6114a66040830184610e9b565b949350505050565b60006114b982610e38565b91507fffffffffffffffffffffffffffffffffffffffffffffffffffffffffffffffff82036114eb576114ea611414565b5b600182019050919050565b60008190508160005260206000209050919050565b60006020601f8301049050919050565b600082821b905092915050565b6000600883026115587fffffffffffffffffffffffffffffffffffffffffffffffffffffffffffffffff8261151b565b611562868361151b565b95508019841693508086168417925050509392505050565b6000819050919050565b600061159f61159a61159584610e38565b61157a565b610e38565b9050919050565b6000819050919050565b6115b983611584565b6115cd6115c5826115a6565b848454611528565b825550505050565b600090565b6115e26115d5565b6115ed8184846115b0565b505050565b5b81811015611611576116066000826115da565b6001810190506115f3565b5050565b601f82111561165657611627816114f6565b6116308461150b565b8101602085101561163f578190505b61165361164b8561150b565b8301826115f2565b50505b505050565b600082821c905092915050565b60006116796000198460080261165b565b1980831691505092915050565b60006116928383611668565b9150826002028217905092915050565b6116ab82610eaa565b67ffffffffffffffff8111156116c4576116c3611128565b5b6116ce825461130b565b6116d9828285611615565b600060209050601f83116001811461170c57600084156116fa578287015190505b6117048582611686565b86555061176c565b601f19841661171a866114f6565b60005b828110156117425784890151825560018201915060208501945060208101905061171d565b8683101561175f578489015161175b601f891682611668565b8355505b6001600288020188555050505b505050505050565b60006060820190506117896000830186610e9b565b818103602083015261179b8185610f01565b90506117aa6040830184610f6c565b94935050505056fea2646970667358221220e239c60fb6fbd81753dc597c553978ff082ca43ad7ab82d09a347fed93a5ec5364736f6c63430008140033",
  "linkReferences": {},
  "deployedLinkReferences": {}
}