{
  "_format": "hh-sol-artifact-1",
  "contractName": "MockRulesEngine",
  "sourceName": "contracts/MockRulesEngine.sol",
  "abi": [
    {
      "inputs": [
        {
          "internalType": "uint256",
          "name": "trackId",
          "type": "uint256"
        },
        {
          "internalType": "uint256",
          "name": "amount",
          "type": "uint256"
        }
      ],
      "name": "calculateRoyalties",
      "outputs": [
        {
          "internalType": "address[]",
          "name": "recipients",
          "type": "address[]"
        },
        {
          "internalType": "uint256[]",
          "name": "amounts",
          "type": "uint256[]"
        }
      ],
      "stateMutability": "pure",
      "type": "function"
    },
    {
      "inputs": [
        {
          "internalType": "address",
          "name": "user",
          "type": "address"
        },
        {
          "internalType": "uint256",
          "name": "amount",
          "type": "uint256"
        },
        {
          "internalType": "uint256",
          "name": "tier",
          "type": "uint256"
        }
      ],
      "name": "checkFundingEligibility",
      "outputs": [
        {
          "internalType": "bool",
          "name": "eligible",
          "type": "bool"
        },
        {
          "internalType": "string",
          "name": "reason",
          "type": "string"
        }
      ],
      "stateMutability": "pure",
      "type": "function"
    },
    {
      "inputs": [
        {
          "internalType": "address",
          "name": "user",
          "type": "address"
        },
        {
          "internalType": "string",
          "name": "mediaType",
          "type": "string"
        }
      ],
      "name": "checkLicensingEligibility",
      "outputs": [
        {
          "internalType": "bool",
          "name": "eligible",
          "type": "bool"
        },
        {
          "internalType": "string",
          "name": "reason",
          "type": "string"
        }
      ],
      "stateMutability": "pure",
      "type": "function"
    }
  ],
  "bytecode": "0x608060405234801561001057600080fd5b50610bf7806100206000396000f3fe608060405234801561001057600080fd5b50600436106100415760003560e01c806307a40a1014610046578063577a8e5114610077578063d08629c1146100a8575b600080fd5b610060600480360381019061005b9190610532565b6100d9565b60405161006e929190610630565b60405180910390f35b610091600480360381019061008c9190610795565b61017f565b60405161009f929190610630565b60405180910390f35b6100c260048036038101906100bd91906107f1565b61024a565b6040516100d09291906109ad565b60405180910390f35b600060606003831480156100f45750670de0b6b3a764000084105b1561013a5760006040518060400160405280602081526020017f476f6c642074696572207265717569726573206d696e696d756d20312045544881525091509150610177565b60016040518060400160405280600881526020017f456c696769626c65000000000000000000000000000000000000000000000000815250915091505b935093915050565b600060606000836040516020016101969190610a20565b60405160208183030381529060405280519060200120905060006040516020016101bf90610a83565b604051602081830303815290604052805190602001209050808203610204576000604051806060016040528060298152602001610b9960299139935093505050610243565b60016040518060400160405280601681526020017f456c696769626c6520666f72206c6963656e73696e67000000000000000000008152509350935050505b9250929050565b606080600367ffffffffffffffff8111156102685761026761066a565b5b6040519080825280602002602001820160405280156102965781602001602082028036833780820191505090505b509150600367ffffffffffffffff8111156102b4576102b361066a565b5b6040519080825280602002602001820160405280156102e25781602001602082028036833780820191505090505b509050610123826000815181106102fc576102fb610a98565b5b602002602001019073ffffffffffffffffffffffffffffffffffffffff16908173ffffffffffffffffffffffffffffffffffffffff168152505060646050846103459190610af6565b61034f9190610b67565b8160008151811061036357610362610a98565b5b6020026020010181815250506104568260018151811061038657610385610a98565b5b602002602001019073ffffffffffffffffffffffffffffffffffffffff16908173ffffffffffffffffffffffffffffffffffffffff16815250506064600f846103cf9190610af6565b6103d99190610b67565b816001815181106103ed576103ec610a98565b5b602002602001018181525050610789826002815181106104105761040f610a98565b5b602002602001019073ffffffffffffffffffffffffffffffffffffffff16908173ffffffffffffffffffffffffffffffffffffffff168152505060646005846104599190610af6565b6104639190610b67565b8160028151811061047757610476610a98565b5b6020026020010181815250509250929050565b6000604051905090565b600080fd5b600080fd5b600073ffffffffffffffffffffffffffffffffffffffff82169050919050565b60006104c98261049e565b9050919050565b6104d9816104be565b81146104e457600080fd5b50565b6000813590506104f6816104d0565b92915050565b6000819050919050565b61050f816104fc565b811461051a57600080fd5b50565b60008135905061052c81610506565b92915050565b60008060006060848603121561054b5761054a610494565b5b6000610559868287016104e7565b935050602061056a8682870161051d565b925050604061057b8682870161051d565b9150509250925092565b60008115159050919050565b61059a81610585565b82525050565b600081519050919050565b600082825260208201905092915050565b60005b838110156105da5780820151818401526020810190506105bf565b60008484015250505050565b6000601f19601f8301169050919050565b6000610602826105a0565b61060c81856105ab565b935061061c8185602086016105bc565b610625816105e6565b840191505092915050565b60006040820190506106456000830185610591565b818103602083015261065781846105f7565b90509392505050565b600080fd5b600080fd5b7f4e487b7100000000000000000000000000000000000000000000000000000000600052604160045260246000fd5b6106a2826105e6565b810181811067ffffffffffffffff821117156106c1576106c061066a565b5b80604052505050565b60006106d461048a565b90506106e08282610699565b919050565b600067ffffffffffffffff821115610700576106ff61066a565b5b610709826105e6565b9050602081019050919050565b82818337600083830152505050565b6000610738610733846106e5565b6106ca565b90508281526020810184848401111561075457610753610665565b5b61075f848285610716565b509392505050565b600082601f83011261077c5761077b610660565b5b813561078c848260208601610725565b91505092915050565b600080604083850312156107ac576107ab610494565b5b60006107ba858286016104e7565b925050602083013567ffffffffffffffff8111156107db576107da610499565b5b6107e785828601610767565b9150509250929050565b6000806040838503121561080857610807610494565b5b60006108168582860161051d565b92505060206108278582860161051d565b9150509250929050565b600081519050919050565b600082825260208201905092915050565b6000819050602082019050919050565b610866816104be565b82525050565b6000610878838361085d565b60208301905092915050565b6000602082019050919050565b600061089c82610831565b6108a6818561083c565b93506108b18361084d565b8060005b838110156108e25781516108c9888261086c565b97506108d483610884565b9250506001810190506108b5565b5085935050505092915050565b600081519050919050565b600082825260208201905092915050565b6000819050602082019050919050565b610924816104fc565b82525050565b6000610936838361091b565b60208301905092915050565b6000602082019050919050565b600061095a826108ef565b61096481856108fa565b935061096f8361090b565b8060005b838110156109a0578151610987888261092a565b975061099283610942565b925050600181019050610973565b5085935050505092915050565b600060408201905081810360008301526109c78185610891565b905081810360208301526109db818461094f565b90509392505050565b600081905092915050565b60006109fa826105a0565b610a0481856109e4565b9350610a148185602086016105bc565b80840191505092915050565b6000610a2c82846109ef565b915081905092915050565b7f636f6d6d65726369616c00000000000000000000000000000000000000000000600082015250565b6000610a6d600a836109e4565b9150610a7882610a37565b600a82019050919050565b6000610a8e82610a60565b9150819050919050565b7f4e487b7100000000000000000000000000000000000000000000000000000000600052603260045260246000fd5b7f4e487b7100000000000000000000000000000000000000000000000000000000600052601160045260246000fd5b6000610b01826104fc565b9150610b0c836104fc565b9250828202610b1a816104fc565b91508282048414831517610b3157610b30610ac7565b5b5092915050565b7f4e487b7100000000000000000000000000000000000000000000000000000000600052601260045260246000fd5b6000610b72826104fc565b9150610b7d836104fc565b925082610b8d57610b8c610b38565b5b82820490509291505056fe436f6d6d65726369616c206c6963656e73696e67207265717569726573204b5943206c6576656c2033a2646970667358221220c9262ae3fd2073f7d323631fdf65261f6f968d8860e29a59b1c53b7ca2cde7a064736f6c63430008140033",
  "linkReferences": {},
  "deployedLinkReferences": {}
}